{
  "_format": "hh-sol-artifact-1",
  "contractName": "Counter",
  "sourceName": "contracts/Counter.sol",
  "abi": [
    {
      "anonymous": false,
      "inputs": [
        {
          "indexed": false,
          "internalType": "address",
          "name": "by",
          "type": "address"
        }
      ],
      "name": "CounterAdded",
      "type": "event"
    },
    {
      "inputs": [],
      "name": "addCount",
      "outputs": [],
      "stateMutability": "nonpayable",
      "type": "function"
    },
    {
      "inputs": [],
      "name": "count",
      "outputs": [
        {
          "internalType": "uint256",
          "name": "",
          "type": "uint256"
        }
      ],
      "stateMutability": "view",
      "type": "function"
    }
  ],
  "bytecode": "0x60806040526000805534801561001457600080fd5b50610202806100246000396000f3fe608060405234801561001057600080fd5b50600436106100365760003560e01c806306661abd1461003b5780636cefce6e14610059575b600080fd5b610043610063565b60405161005091906100d0565b60405180910390f35b610061610069565b005b60005481565b6001600054610078919061011a565b6000819055507fae88bbda7bb3b77545367853a79f3f40aac194ca9a0732c6d41160b37a5de6a0336040516100ad91906101b1565b60405180910390a1565b6000819050919050565b6100ca816100b7565b82525050565b60006020820190506100e560008301846100c1565b92915050565b7f4e487b7100000000000000000000000000000000000000000000000000000000600052601160045260246000fd5b6000610125826100b7565b9150610130836100b7565b9250827fffffffffffffffffffffffffffffffffffffffffffffffffffffffffffffffff03821115610165576101646100eb565b5b828201905092915050565b600073ffffffffffffffffffffffffffffffffffffffff82169050919050565b600061019b82610170565b9050919050565b6101ab81610190565b82525050565b60006020820190506101c660008301846101a2565b9291505056fea2646970667358221220332eb8c90c61ab6e07ac344e44b29b4e2af8ca04dc1a01148345befd0f63140c64736f6c63430008090033",
  "linkReferences": {},
  "deployedLinkReferences": {}
}